{"project/contracts/AuditContract.sol":{"AuditRegistry":{"abi":[{"anonymous":false,"inputs":[{"indexed":true,"internalType":"bytes32","name":"contractHash","type":"bytes32"},{"indexed":false,"internalType":"uint8","name":"stars","type":"uint8"},{"indexed":false,"internalType":"string","name":"summary","type":"string"},{"indexed":true,"internalType":"address","name":"auditor","type":"address"},{"indexed":false,"internalType":"uint256","name":"timestamp","type":"uint256"}],"name":"AuditRegistered","type":"event"},{"inputs":[{"internalType":"uint256","name":"startIndex","type":"uint256"},{"internalType":"uint256","name":"limit","type":"uint256"}],"name":"getAllAudits","outputs":[{"internalType":"bytes32[]","name":"contractHashes","type":"bytes32[]"},{"internalType":"uint8[]","name":"stars","type":"uint8[]"},{"internalType":"string[]","name":"summaries","type":"string[]"},{"internalType":"address[]","name":"auditors","type":"address[]"},{"internalType":"uint256[]","name":"timestamps","type":"uint256[]"}],"stateMutability":"view","type":"function"},{"inputs":[{"internalType":"address","name":"auditor","type":"address"}],"name":"getAuditorHistory","outputs":[{"internalType":"bytes32[]","name":"","type":"bytes32[]"}],"stateMutability":"view","type":"function"},{"inputs":[{"internalType":"bytes32","name":"contractHash","type":"bytes32"}],"name":"getContractAudits","outputs":[{"components":[{"internalType":"uint8","name":"stars","type":"uint8"},{"internalType":"string","name":"summary","type":"string"},{"internalType":"address","name":"auditor","type":"address"},{"internalType":"uint256","name":"timestamp","type":"uint256"}],"internalType":"struct AuditRegistry.AuditEntry[]","name":"","type":"tuple[]"}],"stateMutability":"view","type":"function"},{"inputs":[{"internalType":"bytes32","name":"contractHash","type":"bytes32"}],"name":"getLatestAudit","outputs":[{"components":[{"internalType":"uint8","name":"stars","type":"uint8"},{"internalType":"string","name":"summary","type":"string"},{"internalType":"address","name":"auditor","type":"address"},{"internalType":"uint256","name":"timestamp","type":"uint256"}],"internalType":"struct AuditRegistry.AuditEntry","name":"","type":"tuple"}],"stateMutability":"view","type":"function"},{"inputs":[],"name":"getTotalContracts","outputs":[{"internalType":"uint256","name":"","type":"uint256"}],"stateMutability":"view","type":"function"},{"inputs":[{"internalType":"bytes32","name":"contractHash","type":"bytes32"},{"internalType":"uint8","name":"stars","type":"uint8"},{"internalType":"string","name":"summary","type":"string"}],"name":"registerAudit","outputs":[],"stateMutability":"nonpayable","type":"function"}],"evm":{"bytecode":{"linkReferences":{},"object":"608060405234801561000f575f80fd5b50610fa58061001d5f395ff3fe608060405234801561000f575f80fd5b5060043610610060575f3560e01c80630c275a1b14610064578063534860cc14610091578063828f9fe7146100a2578063bd2ee05b146100c2578063be017856146100d7578063c7b962ca146100f7575b5f80fd5b610077610072366004610a2e565b610117565b604051610088959493929190610b01565b60405180910390f35b600254604051908152602001610088565b6100b56100b0366004610bd4565b61051d565b6040516100889190610c01565b6100d56100d0366004610c13565b610586565b005b6100ea6100e5366004610c9a565b61072e565b6040516100889190610cfa565b61010a610105366004610c9a565b610904565b6040516100889190610d0c565b600254606090819081908190819080881061016f5760405162461bcd60e51b8152602060048201526013602482015272092dcecc2d8d2c840e6e8c2e4e840d2dcc8caf606b1b60448201526064015b60405180910390fd5b5f61017a888a610d80565b9050818111156101875750805b5f6101928a83610d99565b90508067ffffffffffffffff8111156101ad576101ad610dac565b6040519080825280602002602001820160405280156101d6578160200160208202803683370190505b5097508067ffffffffffffffff8111156101f2576101f2610dac565b60405190808252806020026020018201604052801561021b578160200160208202803683370190505b5096508067ffffffffffffffff81111561023757610237610dac565b60405190808252806020026020018201604052801561026a57816020015b60608152602001906001900390816102555790505b5095508067ffffffffffffffff81111561028657610286610dac565b6040519080825280602002602001820160405280156102af578160200160208202803683370190505b5094508067ffffffffffffffff8111156102cb576102cb610dac565b6040519080825280602002602001820160405280156102f4578160200160208202803683370190505b5093505f5b8181101561050f575f600261030e838e610d80565b8154811061031e5761031e610dc0565b5f918252602080832090910154808352908290526040822080549193509061034890600190610d99565b8154811061035857610358610dc0565b5f9182526020918290206040805160808101909152600490920201805460ff168252600181018054929391929184019161039190610dd4565b80601f01602080910402602001604051908101604052809291908181526020018280546103bd90610dd4565b80156104085780601f106103df57610100808354040283529160200191610408565b820191905f5260205f20905b8154815290600101906020018083116103eb57829003601f168201915b505050918352505060028201546001600160a01b031660208201526003909101546040909101528b5190915082908c908590811061044857610448610dc0565b602002602001018181525050805f01518a848151811061046a5761046a610dc0565b602002602001019060ff16908160ff1681525050806020015189848151811061049557610495610dc0565b602002602001018190525080604001518884815181106104b7576104b7610dc0565b60200260200101906001600160a01b031690816001600160a01b03168152505080606001518784815181106104ee576104ee610dc0565b6020026020010181815250505050808061050790610e0c565b9150506102f9565b505050509295509295909350565b6001600160a01b0381165f9081526001602090815260409182902080548351818402810184019094528084526060939283018282801561057a57602002820191905f5260205f20905b815481526020019060010190808311610566575b50505050509050919050565b5f60405180608001604052808560ff16815260200184848080601f0160208091040260200160405190810160405280939291908181526020018383808284375f92018290525093855250503360208085019190915242604094850152898352828152928220805460018082018355918452928490208551600490940201805460ff191660ff909416939093178355928401519394508493919283019161062d915082610e72565b506040828101516002830180546001600160a01b0319166001600160a01b03909216919091179055606090920151600391820155335f9081526001602081815284832080549283018155835280832090910189905588825291909152205460ff166106df575f858152600360205260408120805460ff191660019081179091556002805491820181559091527f405787fa12a823e0f2b7631cc41b3ba8828b3321ca811111fa75cd3aa3bb5ace018590555b336001600160a01b0316857fd5bbce1f20e4edd1c349eb288cb3c6bd3169b8e8d232d0bba85b50bdb972b1e28686864260405161071f9493929190610f2e565b60405180910390a35050505050565b61076260405180608001604052805f60ff168152602001606081526020015f6001600160a01b031681526020015f81525090565b5f8281526020818152604080832080548251818502810185019093528083529192909190849084015b8282101561087f575f848152602090819020604080516080810190915260048502909101805460ff16825260018101805492939192918401916107cd90610dd4565b80601f01602080910402602001604051908101604052809291908181526020018280546107f990610dd4565b80156108445780601f1061081b57610100808354040283529160200191610844565b820191905f5260205f20905b81548152906001019060200180831161082757829003601f168201915b505050918352505060028201546001600160a01b0316602080830191909152600390920154604090910152908252600192909201910161078b565b5050505090505f8151116108d55760405162461bcd60e51b815260206004820152601c60248201527f4e6f2061756469747320666f756e6420666f7220636f6e7472616374000000006044820152606401610166565b80600182516108e49190610d99565b815181106108f4576108f4610dc0565b6020026020010151915050919050565b5f81815260208181526040808320805482518185028101850190935280835260609492939192909184015b82821015610a23575f848152602090819020604080516080810190915260048502909101805460ff168252600181018054929391929184019161097190610dd4565b80601f016020809104026020016040519081016040528092919081815260200182805461099d90610dd4565b80156109e85780601f106109bf576101008083540402835291602001916109e8565b820191905f5260205f20905b8154815290600101906020018083116109cb57829003601f168201915b505050918352505060028201546001600160a01b0316602080830191909152600390920154604090910152908252600192909201910161092f565b505050509050919050565b5f8060408385031215610a3f575f80fd5b50508035926020909101359150565b5f8151808452602080850194508084015f5b83811015610a7c57815187529582019590820190600101610a60565b509495945050505050565b5f81518084525f5b81811015610aab57602081850181015186830182015201610a8f565b505f602082860101526020601f19601f83011685010191505092915050565b5f8151808452602080850194508084015f5b83811015610a7c5781516001600160a01b031687529582019590820190600101610adc565b60a081525f610b1360a0830188610a4e565b8281036020848101919091528751808352888201928201905f5b81811015610b4c57845160ff1683529383019391830191600101610b2d565b5050848103604086015287518082528282019350600581901b82018301838a015f5b83811015610b9c57601f19858403018752610b8a838351610a87565b96860196925090850190600101610b6e565b50508681036060880152610bb0818a610aca565b9450505050508281036080840152610bc88185610a4e565b98975050505050505050565b5f60208284031215610be4575f80fd5b81356001600160a01b0381168114610bfa575f80fd5b9392505050565b602081525f610bfa6020830184610a4e565b5f805f8060608587031215610c26575f80fd5b84359350602085013560ff81168114610c3d575f80fd5b9250604085013567ffffffffffffffff80821115610c59575f80fd5b818701915087601f830112610c6c575f80fd5b813581811115610c7a575f80fd5b886020828501011115610c8b575f80fd5b95989497505060200194505050565b5f60208284031215610caa575f80fd5b5035919050565b60ff81511682525f602082015160806020850152610cd26080850182610a87565b6040848101516001600160a01b03169086015260609384015193909401929092525090919050565b602081525f610bfa6020830184610cb1565b5f602080830181845280855180835260408601915060408160051b87010192508387015f5b82811015610d5f57603f19888603018452610d4d858351610cb1565b94509285019290850190600101610d31565b5092979650505050505050565b634e487b7160e01b5f52601160045260245ffd5b80820180821115610d9357610d93610d6c565b92915050565b81810381811115610d9357610d93610d6c565b634e487b7160e01b5f52604160045260245ffd5b634e487b7160e01b5f52603260045260245ffd5b600181811c90821680610de857607f821691505b602082108103610e0657634e487b7160e01b5f52602260045260245ffd5b50919050565b5f60018201610e1d57610e1d610d6c565b5060010190565b601f821115610e6d575f81815260208120601f850160051c81016020861015610e4a5750805b601f850160051c820191505b81811015610e6957828155600101610e56565b5050505b505050565b815167ffffffffffffffff811115610e8c57610e8c610dac565b610ea081610e9a8454610dd4565b84610e24565b602080601f831160018114610ed3575f8415610ebc5750858301515b5f19600386901b1c1916600185901b178555610e69565b5f85815260208120601f198616915b82811015610f0157888601518255948401946001909101908401610ee2565b5085821015610f1e57878501515f19600388901b60f8161c191681555b5050505050600190811b01905550565b60ff8516815260606020820152826060820152828460808301375f608084830101525f6080601f19601f86011683010190508260408301529594505050505056fea2646970667358221220b88cd960b8c8ad9ab34d19eb5cfda7a2fdf6e7fc820fd65a3a6d844855f842a564736f6c63430008140033","opcodes":"PUSH1 0x80 PUSH1 0x40 MSTORE CALLVALUE DUP1 ISZERO PUSH2 0xF JUMPI PUSH0 DUP1 REVERT JUMPDEST POP PUSH2 0xFA5 DUP1 PUSH2 0x1D PUSH0 CODECOPY PUSH0 RETURN INVALID PUSH1 0x80 PUSH1 0x40 MSTORE CALLVALUE DUP1 ISZERO PUSH2 0xF JUMPI PUSH0 DUP1 REVERT JUMPDEST POP PUSH1 0x4 CALLDATASIZE LT PUSH2 0x60 JUMPI PUSH0 CALLDATALOAD PUSH1 0xE0 SHR DUP1 PUSH4 0xC275A1B EQ PUSH2 0x64 JUMPI DUP1 PUSH4 0x534860CC EQ PUSH2 0x91 JUMPI DUP1 PUSH4 0x828F9FE7 EQ PUSH2 0xA2 JUMPI DUP1 PUSH4 0xBD2EE05B EQ PUSH2 0xC2 JUMPI DUP1 PUSH4 0xBE017856 EQ PUSH2 0xD7 JUMPI DUP1 PUSH4 0xC7B962CA EQ PUSH2 0xF7 JUMPI JUMPDEST PUSH0 DUP1 REVERT JUMPDEST PUSH2 0x77 PUSH2 0x72 CALLDATASIZE PUSH1 0x4 PUSH2 0xA2E JUMP JUMPDEST PUSH2 0x117 JUMP JUMPDEST PUSH1 0x40 MLOAD PUSH2 0x88 SWAP6 SWAP5 SWAP4 SWAP3 SWAP2 SWAP1 PUSH2 0xB01 JUMP JUMPDEST PUSH1 0x40 MLOAD DUP1 SWAP2 SUB SWAP1 RETURN JUMPDEST PUSH1 0x2 SLOAD PUSH1 0x40 MLOAD SWAP1 DUP2 MSTORE PUSH1 0x20 ADD PUSH2 0x88 JUMP JUMPDEST PUSH2 0xB5 PUSH2 0xB0 CALLDATASIZE PUSH1 0x4 PUSH2 0xBD4 JUMP JUMPDEST PUSH2 0x51D JUMP JUMPDEST PUSH1 0x40 MLOAD PUSH2 0x88 SWAP2 SWAP1 PUSH2 0xC01 JUMP JUMPDEST PUSH2 0xD5 PUSH2 0xD0 CALLDATASIZE PUSH1 0x4 PUSH2 0xC13 JUMP JUMPDEST PUSH2 0x586 JUMP JUMPDEST STOP JUMPDEST PUSH2 0xEA PUSH2 0xE5 CALLDATASIZE PUSH1 0x4 PUSH2 0xC9A JUMP JUMPDEST PUSH2 0x72E JUMP JUMPDEST PUSH1 0x40 MLOAD PUSH2 0x88 SWAP2 SWAP1 PUSH2 0xCFA JUMP JUMPDEST PUSH2 0x10A PUSH2 0x105 CALLDATASIZE PUSH1 0x4 PUSH2 0xC9A JUMP JUMPDEST PUSH2 0x904 JUMP JUMPDEST PUSH1 0x40 MLOAD PUSH2 0x88 SWAP2 SWAP1 PUSH2 0xD0C JUMP JUMPDEST PUSH1 0x2 SLOAD PUSH1 0x60 SWAP1 DUP2 SWAP1 DUP2 SWAP1 DUP2 SWAP1 DUP2 SWAP1 DUP1 DUP9 LT PUSH2 0x16F JUMPI PUSH1 0x40 MLOAD PUSH3 0x461BCD PUSH1 0xE5 SHL DUP2 MSTORE PUSH1 0x20 PUSH1 0x4 DUP3 ADD MSTORE PUSH1 0x13 PUSH1 0x24 DUP3 ADD MSTORE PUSH19 0x92DCECC2D8D2C840E6E8C2E4E840D2DCC8CAF PUSH1 0x6B SHL PUSH1 0x44 DUP3 ADD MSTORE PUSH1 0x64 ADD JUMPDEST PUSH1 0x40 MLOAD DUP1 SWAP2 SUB SWAP1 REVERT JUMPDEST PUSH0 PUSH2 0x17A DUP9 DUP11 PUSH2 0xD80 JUMP JUMPDEST SWAP1 POP DUP2 DUP2 GT ISZERO PUSH2 0x187 JUMPI POP DUP1 JUMPDEST PUSH0 PUSH2 0x192 DUP11 DUP4 PUSH2 0xD99 JUMP JUMPDEST SWAP1 POP DUP1 PUSH8 0xFFFFFFFFFFFFFFFF DUP2 GT ISZERO PUSH2 0x1AD JUMPI PUSH2 0x1AD PUSH2 0xDAC JUMP JUMPDEST PUSH1 0x40 MLOAD SWAP1 DUP1 DUP3 MSTORE DUP1 PUSH1 0x20 MUL PUSH1 0x20 ADD DUP3 ADD PUSH1 0x40 MSTORE DUP1 ISZERO PUSH2 0x1D6 JUMPI DUP2 PUSH1 0x20 ADD PUSH1 0x20 DUP3 MUL DUP1 CALLDATASIZE DUP4 CALLDATACOPY ADD SWAP1 POP JUMPDEST POP SWAP8 POP DUP1 PUSH8 0xFFFFFFFFFFFFFFFF DUP2 GT ISZERO PUSH2 0x1F2 JUMPI PUSH2 0x1F2 PUSH2 0xDAC JUMP JUMPDEST PUSH1 0x40 MLOAD SWAP1 DUP1 DUP3 MSTORE DUP1 PUSH1 0x20 MUL PUSH1 0x20 ADD DUP3 ADD PUSH1 0x40 MSTORE DUP1 ISZERO PUSH2 0x21B JUMPI DUP2 PUSH1 0x20 ADD PUSH1 0x20 DUP3 MUL DUP1 CALLDATASIZE DUP4 CALLDATACOPY ADD SWAP1 POP JUMPDEST POP SWAP7 POP DUP1 PUSH8 0xFFFFFFFFFFFFFFFF DUP2 GT ISZERO PUSH2 0x237 JUMPI PUSH2 0x237 PUSH2 0xDAC JUMP JUMPDEST PUSH1 0x40 MLOAD SWAP1 DUP1 DUP3 MSTORE DUP1 PUSH1 0x20 MUL PUSH1 0x20 ADD DUP3 ADD PUSH1 0x40 MSTORE DUP1 ISZERO PUSH2 0x26A JUMPI DUP2 PUSH1 0x20 ADD JUMPDEST PUSH1 0x60 DUP2 MSTORE PUSH1 0x20 ADD SWAP1 PUSH1 0x1 SWAP1 SUB SWAP1 DUP2 PUSH2 0x255 JUMPI SWAP1 POP JUMPDEST POP SWAP6 POP DUP1 PUSH8 0xFFFFFFFFFFFFFFFF DUP2 GT ISZERO PUSH2 0x286 JUMPI PUSH2 0x286 PUSH2 0xDAC JUMP JUMPDEST PUSH1 0x40 MLOAD SWAP1 DUP1 DUP3 MSTORE DUP1 PUSH1 0x20 MUL PUSH1 0x20 ADD DUP3 ADD PUSH1 0x40 MSTORE DUP1 ISZERO PUSH2 0x2AF JUMPI DUP2 PUSH1 0x20 ADD PUSH1 0x20 DUP3 MUL DUP1 CALLDATASIZE DUP4 CALLDATACOPY ADD SWAP1 POP JUMPDEST POP SWAP5 POP DUP1 PUSH8 0xFFFFFFFFFFFFFFFF DUP2 GT ISZERO PUSH2 0x2CB JUMPI PUSH2 0x2CB PUSH2 0xDAC JUMP JUMPDEST PUSH1 0x40 MLOAD SWAP1 DUP1 DUP3 MSTORE DUP1 PUSH1 0x20 MUL PUSH1 0x20 ADD DUP3 ADD PUSH1 0x40 MSTORE DUP1 ISZERO PUSH2 0x2F4 JUMPI DUP2 PUSH1 0x20 ADD PUSH1 0x20 DUP3 MUL DUP1 CALLDATASIZE DUP4 CALLDATACOPY ADD SWAP1 POP JUMPDEST POP SWAP4 POP PUSH0 JUMPDEST DUP2 DUP2 LT ISZERO PUSH2 0x50F JUMPI PUSH0 PUSH1 0x2 PUSH2 0x30E DUP4 DUP15 PUSH2 0xD80 JUMP JUMPDEST DUP2 SLOAD DUP2 LT PUSH2 0x31E JUMPI PUSH2 0x31E PUSH2 0xDC0 JUMP JUMPDEST PUSH0 SWAP2 DUP3 MSTORE PUSH1 0x20 DUP1 DUP4 KECCAK256 SWAP1 SWAP2 ADD SLOAD DUP1 DUP4 MSTORE SWAP1 DUP3 SWAP1 MSTORE PUSH1 0x40 DUP3 KECCAK256 DUP1 SLOAD SWAP2 SWAP4 POP SWAP1 PUSH2 0x348 SWAP1 PUSH1 0x1 SWAP1 PUSH2 0xD99 JUMP JUMPDEST DUP2 SLOAD DUP2 LT PUSH2 0x358 JUMPI PUSH2 0x358 PUSH2 0xDC0 JUMP JUMPDEST PUSH0 SWAP2 DUP3 MSTORE PUSH1 0x20 SWAP2 DUP3 SWAP1 KECCAK256 PUSH1 0x40 DUP1 MLOAD PUSH1 0x80 DUP2 ADD SWAP1 SWAP2 MSTORE PUSH1 0x4 SWAP1 SWAP3 MUL ADD DUP1 SLOAD PUSH1 0xFF AND DUP3 MSTORE PUSH1 0x1 DUP2 ADD DUP1 SLOAD SWAP3 SWAP4 SWAP2 SWAP3 SWAP2 DUP5 ADD SWAP2 PUSH2 0x391 SWAP1 PUSH2 0xDD4 JUMP JUMPDEST DUP1 PUSH1 0x1F ADD PUSH1 0x20 DUP1 SWAP2 DIV MUL PUSH1 0x20 ADD PUSH1 0x40 MLOAD SWAP1 DUP2 ADD PUSH1 0x40 MSTORE DUP1 SWAP3 SWAP2 SWAP1 DUP2 DUP2 MSTORE PUSH1 0x20 ADD DUP3 DUP1 SLOAD PUSH2 0x3BD SWAP1 PUSH2 0xDD4 JUMP JUMPDEST DUP1 ISZERO PUSH2 0x408 JUMPI DUP1 PUSH1 0x1F LT PUSH2 0x3DF JUMPI PUSH2 0x100 DUP1 DUP4 SLOAD DIV MUL DUP4 MSTORE SWAP2 PUSH1 0x20 ADD SWAP2 PUSH2 0x408 JUMP JUMPDEST DUP3 ADD SWAP2 SWAP1 PUSH0 MSTORE PUSH1 0x20 PUSH0 KECCAK256 SWAP1 JUMPDEST DUP2 SLOAD DUP2 MSTORE SWAP1 PUSH1 0x1 ADD SWAP1 PUSH1 0x20 ADD DUP1 DUP4 GT PUSH2 0x3EB JUMPI DUP3 SWAP1 SUB PUSH1 0x1F AND DUP3 ADD SWAP2 JUMPDEST POP POP POP SWAP2 DUP4 MSTORE POP POP PUSH1 0x2 DUP3 ADD SLOAD PUSH1 0x1 PUSH1 0x1 PUSH1 0xA0 SHL SUB AND PUSH1 0x20 DUP3 ADD MSTORE PUSH1 0x3 SWAP1 SWAP2 ADD SLOAD PUSH1 0x40 SWAP1 SWAP2 ADD MSTORE DUP12 MLOAD SWAP1 SWAP2 POP DUP3 SWAP1 DUP13 SWAP1 DUP6 SWAP1 DUP2 LT PUSH2 0x448 JUMPI PUSH2 0x448 PUSH2 0xDC0 JUMP JUMPDEST PUSH1 0x20 MUL PUSH1 0x20 ADD ADD DUP2 DUP2 MSTORE POP POP DUP1 PUSH0 ADD MLOAD DUP11 DUP5 DUP2 MLOAD DUP2 LT PUSH2 0x46A JUMPI PUSH2 0x46A PUSH2 0xDC0 JUMP JUMPDEST PUSH1 0x20 MUL PUSH1 0x20 ADD ADD SWAP1 PUSH1 0xFF AND SWAP1 DUP2 PUSH1 0xFF AND DUP2 MSTORE POP POP DUP1 PUSH1 0x20 ADD MLOAD DUP10 DUP5 DUP2 MLOAD DUP2 LT PUSH2 0x495 JUMPI PUSH2 0x495 PUSH2 0xDC0 JUMP JUMPDEST PUSH1 0x20 MUL PUSH1 0x20 ADD ADD DUP2 SWAP1 MSTORE POP DUP1 PUSH1 0x40 ADD MLOAD DUP9 DUP5 DUP2 MLOAD DUP2 LT PUSH2 0x4B7 JUMPI PUSH2 0x4B7 PUSH2 0xDC0 JUMP JUMPDEST PUSH1 0x20 MUL PUSH1 0x20 ADD ADD SWAP1 PUSH1 0x1 PUSH1 0x1 PUSH1 0xA0 SHL SUB AND SWAP1 DUP2 PUSH1 0x1 PUSH1 0x1 PUSH1 0xA0 SHL SUB AND DUP2 MSTORE POP POP DUP1 PUSH1 0x60 ADD MLOAD DUP8 DUP5 DUP2 MLOAD DUP2 LT PUSH2 0x4EE JUMPI PUSH2 0x4EE PUSH2 0xDC0 JUMP JUMPDEST PUSH1 0x20 MUL PUSH1 0x20 ADD ADD DUP2 DUP2 MSTORE POP POP POP POP DUP1 DUP1 PUSH2 0x507 SWAP1 PUSH2 0xE0C JUMP JUMPDEST SWAP2 POP POP PUSH2 0x2F9 JUMP JUMPDEST POP POP POP POP SWAP3 SWAP6 POP SWAP3 SWAP6 SWAP1 SWAP4 POP JUMP JUMPDEST PUSH1 0x1 PUSH1 0x1 PUSH1 0xA0 SHL SUB DUP2 AND PUSH0 SWAP1 DUP2 MSTORE PUSH1 0x1 PUSH1 0x20 SWAP1 DUP2 MSTORE PUSH1 0x40 SWAP2 DUP3 SWAP1 KECCAK256 DUP1 SLOAD DUP4 MLOAD DUP2 DUP5 MUL DUP2 ADD DUP5 ADD SWAP1 SWAP5 MSTORE DUP1 DUP5 MSTORE PUSH1 0x60 SWAP4 SWAP3 DUP4 ADD DUP3 DUP3 DUP1 ISZERO PUSH2 0x57A JUMPI PUSH1 0x20 MUL DUP3 ADD SWAP2 SWAP1 PUSH0 MSTORE PUSH1 0x20 PUSH0 KECCAK256 SWAP1 JUMPDEST DUP2 SLOAD DUP2 MSTORE PUSH1 0x20 ADD SWAP1 PUSH1 0x1 ADD SWAP1 DUP1 DUP4 GT PUSH2 0x566 JUMPI JUMPDEST POP POP POP POP POP SWAP1 POP SWAP2 SWAP1 POP JUMP JUMPDEST PUSH0 PUSH1 0x40 MLOAD DUP1 PUSH1 0x80 ADD PUSH1 0x40 MSTORE DUP1 DUP6 PUSH1 0xFF AND DUP2 MSTORE PUSH1 0x20 ADD DUP5 DUP5 DUP1 DUP1 PUSH1 0x1F ADD PUSH1 0x20 DUP1 SWAP2 DIV MUL PUSH1 0x20 ADD PUSH1 0x40 MLOAD SWAP1 DUP2 ADD PUSH1 0x40 MSTORE DUP1 SWAP4 SWAP3 SWAP2 SWAP1 DUP2 DUP2 MSTORE PUSH1 0x20 ADD DUP4 DUP4 DUP1 DUP3 DUP5 CALLDATACOPY PUSH0 SWAP3 ADD DUP3 SWAP1 MSTORE POP SWAP4 DUP6 MSTORE POP POP CALLER PUSH1 0x20 DUP1 DUP6 ADD SWAP2 SWAP1 SWAP2 MSTORE TIMESTAMP PUSH1 0x40 SWAP5 DUP6 ADD MSTORE DUP10 DUP4 MSTORE DUP3 DUP2 MSTORE SWAP3 DUP3 KECCAK256 DUP1 SLOAD PUSH1 0x1 DUP1 DUP3 ADD DUP4 SSTORE SWAP2 DUP5 MSTORE SWAP3 DUP5 SWAP1 KECCAK256 DUP6 MLOAD PUSH1 0x4 SWAP1 SWAP5 MUL ADD DUP1 SLOAD PUSH1 0xFF NOT AND PUSH1 0xFF SWAP1 SWAP5 AND SWAP4 SWAP1 SWAP4 OR DUP4 SSTORE SWAP3 DUP5 ADD MLOAD SWAP4 SWAP5 POP DUP5 SWAP4 SWAP2 SWAP3 DUP4 ADD SWAP2 PUSH2 0x62D SWAP2 POP DUP3 PUSH2 0xE72 JUMP JUMPDEST POP PUSH1 0x40 DUP3 DUP2 ADD MLOAD PUSH1 0x2 DUP4 ADD DUP1 SLOAD PUSH1 0x1 PUSH1 0x1 PUSH1 0xA0 SHL SUB NOT AND PUSH1 0x1 PUSH1 0x1 PUSH1 0xA0 SHL SUB SWAP1 SWAP3 AND SWAP2 SWAP1 SWAP2 OR SWAP1 SSTORE PUSH1 0x60 SWAP1 SWAP3 ADD MLOAD PUSH1 0x3 SWAP2 DUP3 ADD SSTORE CALLER PUSH0 SWAP1 DUP2 MSTORE PUSH1 0x1 PUSH1 0x20 DUP2 DUP2 MSTORE DUP5 DUP4 KECCAK256 DUP1 SLOAD SWAP3 DUP4 ADD DUP2 SSTORE DUP4 MSTORE DUP1 DUP4 KECCAK256 SWAP1 SWAP2 ADD DUP10 SWAP1 SSTORE DUP9 DUP3 MSTORE SWAP2 SWAP1 SWAP2 MSTORE KECCAK256 SLOAD PUSH1 0xFF AND PUSH2 0x6DF JUMPI PUSH0 DUP6 DUP2 MSTORE PUSH1 0x3 PUSH1 0x20 MSTORE PUSH1 0x40 DUP2 KECCAK256 DUP1 SLOAD PUSH1 0xFF NOT AND PUSH1 0x1 SWAP1 DUP2 OR SWAP1 SWAP2 SSTORE PUSH1 0x2 DUP1 SLOAD SWAP2 DUP3 ADD DUP2 SSTORE SWAP1 SWAP2 MSTORE PUSH32 0x405787FA12A823E0F2B7631CC41B3BA8828B3321CA811111FA75CD3AA3BB5ACE ADD DUP6 SWAP1 SSTORE JUMPDEST CALLER PUSH1 0x1 PUSH1 0x1 PUSH1 0xA0 SHL SUB AND DUP6 PUSH32 0xD5BBCE1F20E4EDD1C349EB288CB3C6BD3169B8E8D232D0BBA85B50BDB972B1E2 DUP7 DUP7 DUP7 TIMESTAMP PUSH1 0x40 MLOAD PUSH2 0x71F SWAP5 SWAP4 SWAP3 SWAP2 SWAP1 PUSH2 0xF2E JUMP JUMPDEST PUSH1 0x40 MLOAD DUP1 SWAP2 SUB SWAP1 LOG3 POP POP POP POP POP JUMP JUMPDEST PUSH2 0x762 PUSH1 0x40 MLOAD DUP1 PUSH1 0x80 ADD PUSH1 0x40 MSTORE DUP1 PUSH0 PUSH1 0xFF AND DUP2 MSTORE PUSH1 0x20 ADD PUSH1 0x60 DUP2 MSTORE PUSH1 0x20 ADD PUSH0 PUSH1 0x1 PUSH1 0x1 PUSH1 0xA0 SHL SUB AND DUP2 MSTORE PUSH1 0x20 ADD PUSH0 DUP2 MSTORE POP SWAP1 JUMP JUMPDEST PUSH0 DUP3 DUP2 MSTORE PUSH1 0x20 DUP2 DUP2 MSTORE PUSH1 0x40 DUP1 DUP4 KECCAK256 DUP1 SLOAD DUP3 MLOAD DUP2 DUP6 MUL DUP2 ADD DUP6 ADD SWAP1 SWAP4 MSTORE DUP1 DUP4 MSTORE SWAP2 SWAP3 SWAP1 SWAP2 SWAP1 DUP5 SWAP1 DUP5 ADD JUMPDEST DUP3 DUP3 LT ISZERO PUSH2 0x87F JUMPI PUSH0 DUP5 DUP2 MSTORE PUSH1 0x20 SWAP1 DUP2 SWAP1 KECCAK256 PUSH1 0x40 DUP1 MLOAD PUSH1 0x80 DUP2 ADD SWAP1 SWAP2 MSTORE PUSH1 0x4 DUP6 MUL SWAP1 SWAP2 ADD DUP1 SLOAD PUSH1 0xFF AND DUP3 MSTORE PUSH1 0x1 DUP2 ADD DUP1 SLOAD SWAP3 SWAP4 SWAP2 SWAP3 SWAP2 DUP5 ADD SWAP2 PUSH2 0x7CD SWAP1 PUSH2 0xDD4 JUMP JUMPDEST DUP1 PUSH1 0x1F ADD PUSH1 0x20 DUP1 SWAP2 DIV MUL PUSH1 0x20 ADD PUSH1 0x40 MLOAD SWAP1 DUP2 ADD PUSH1 0x40 MSTORE DUP1 SWAP3 SWAP2 SWAP1 DUP2 DUP2 MSTORE PUSH1 0x20 ADD DUP3 DUP1 SLOAD PUSH2 0x7F9 SWAP1 PUSH2 0xDD4 JUMP JUMPDEST DUP1 ISZERO PUSH2 0x844 JUMPI DUP1 PUSH1 0x1F LT PUSH2 0x81B JUMPI PUSH2 0x100 DUP1 DUP4 SLOAD DIV MUL DUP4 MSTORE SWAP2 PUSH1 0x20 ADD SWAP2 PUSH2 0x844 JUMP JUMPDEST DUP3 ADD SWAP2 SWAP1 PUSH0 MSTORE PUSH1 0x20 PUSH0 KECCAK256 SWAP1 JUMPDEST DUP2 SLOAD DUP2 MSTORE SWAP1 PUSH1 0x1 ADD SWAP1 PUSH1 0x20 ADD DUP1 DUP4 GT PUSH2 0x827 JUMPI DUP3 SWAP1 SUB PUSH1 0x1F AND DUP3 ADD SWAP2 JUMPDEST POP POP POP SWAP2 DUP4 MSTORE POP POP PUSH1 0x2 DUP3 ADD SLOAD PUSH1 0x1 PUSH1 0x1 PUSH1 0xA0 SHL SUB AND PUSH1 0x20 DUP1 DUP4 ADD SWAP2 SWAP1 SWAP2 MSTORE PUSH1 0x3 SWAP1 SWAP3 ADD SLOAD PUSH1 0x40 SWAP1 SWAP2 ADD MSTORE SWAP1 DUP3 MSTORE PUSH1 0x1 SWAP3 SWAP1 SWAP3 ADD SWAP2 ADD PUSH2 0x78B JUMP JUMPDEST POP POP POP POP SWAP1 POP PUSH0 DUP2 MLOAD GT PUSH2 0x8D5 JUMPI PUSH1 0x40 MLOAD PUSH3 0x461BCD PUSH1 0xE5 SHL DUP2 MSTORE PUSH1 0x20 PUSH1 0x4 DUP3 ADD MSTORE PUSH1 0x1C PUSH1 0x24 DUP3 ADD MSTORE PUSH32 0x4E6F2061756469747320666F756E6420666F7220636F6E747261637400000000 PUSH1 0x44 DUP3 ADD MSTORE PUSH1 0x64 ADD PUSH2 0x166 JUMP JUMPDEST DUP1 PUSH1 0x1 DUP3 MLOAD PUSH2 0x8E4 SWAP2 SWAP1 PUSH2 0xD99 JUMP JUMPDEST DUP2 MLOAD DUP2 LT PUSH2 0x8F4 JUMPI PUSH2 0x8F4 PUSH2 0xDC0 JUMP JUMPDEST PUSH1 0x20 MUL PUSH1 0x20 ADD ADD MLOAD SWAP2 POP POP SWAP2 SWAP1 POP JUMP JUMPDEST PUSH0 DUP2 DUP2 MSTORE PUSH1 0x20 DUP2 DUP2 MSTORE PUSH1 0x40 DUP1 DUP4 KECCAK256 DUP1 SLOAD DUP3 MLOAD DUP2 DUP6 MUL DUP2 ADD DUP6 ADD SWAP1 SWAP4 MSTORE DUP1 DUP4 MSTORE PUSH1 0x60 SWAP5 SWAP3 SWAP4 SWAP2 SWAP3 SWAP1 SWAP2 DUP5 ADD JUMPDEST DUP3 DUP3 LT ISZERO PUSH2 0xA23 JUMPI PUSH0 DUP5 DUP2 MSTORE PUSH1 0x20 SWAP1 DUP2 SWAP1 KECCAK256 PUSH1 0x40 DUP1 MLOAD PUSH1 0x80 DUP2 ADD SWAP1 SWAP2 MSTORE PUSH1 0x4 DUP6 MUL SWAP1 SWAP2 ADD DUP1 SLOAD PUSH1 0xFF AND DUP3 MSTORE PUSH1 0x1 DUP2 ADD DUP1 SLOAD SWAP3 SWAP4 SWAP2 SWAP3 SWAP2 DUP5 ADD SWAP2 PUSH2 0x971 SWAP1 PUSH2 0xDD4 JUMP JUMPDEST DUP1 PUSH1 0x1F ADD PUSH1 0x20 DUP1 SWAP2 DIV MUL PUSH1 0x20 ADD PUSH1 0x40 MLOAD SWAP1 DUP2 ADD PUSH1 0x40 MSTORE DUP1 SWAP3 SWAP2 SWAP1 DUP2 DUP2 MSTORE PUSH1 0x20 ADD DUP3 DUP1 SLOAD PUSH2 0x99D SWAP1 PUSH2 0xDD4 JUMP JUMPDEST DUP1 ISZERO PUSH2 0x9E8 JUMPI DUP1 PUSH1 0x1F LT PUSH2 0x9BF JUMPI PUSH2 0x100 DUP1 DUP4 SLOAD DIV MUL DUP4 MSTORE SWAP2 PUSH1 0x20 ADD SWAP2 PUSH2 0x9E8 JUMP JUMPDEST DUP3 ADD SWAP2 SWAP1 PUSH0 MSTORE PUSH1 0x20 PUSH0 KECCAK256 SWAP1 JUMPDEST DUP2 SLOAD DUP2 MSTORE SWAP1 PUSH1 0x1 ADD SWAP1 PUSH1 0x20 ADD DUP1 DUP4 GT PUSH2 0x9CB JUMPI DUP3 SWAP1 SUB PUSH1 0x1F AND DUP3 ADD SWAP2 JUMPDEST POP POP POP SWAP2 DUP4 MSTORE POP POP PUSH1 0x2 DUP3 ADD SLOAD PUSH1 0x1 PUSH1 0x1 PUSH1 0xA0 SHL SUB AND PUSH1 0x20 DUP1 DUP4 ADD SWAP2 SWAP1 SWAP2 MSTORE PUSH1 0x3 SWAP1 SWAP3 ADD SLOAD PUSH1 0x40 SWAP1 SWAP2 ADD MSTORE SWAP1 DUP3 MSTORE PUSH1 0x1 SWAP3 SWAP1 SWAP3 ADD SWAP2 ADD PUSH2 0x92F JUMP JUMPDEST POP POP POP POP SWAP1 POP SWAP2 SWAP1 POP JUMP JUMPDEST PUSH0 DUP1 PUSH1 0x40 DUP4 DUP6 SUB SLT ISZERO PUSH2 0xA3F JUMPI PUSH0 DUP1 REVERT JUMPDEST POP POP DUP1 CALLDATALOAD SWAP3 PUSH1 0x20 SWAP1 SWAP2 ADD CALLDATALOAD SWAP2 POP JUMP JUMPDEST PUSH0 DUP2 MLOAD DUP1 DUP5 MSTORE PUSH1 0x20 DUP1 DUP6 ADD SWAP5 POP DUP1 DUP5 ADD PUSH0 JUMPDEST DUP4 DUP2 LT ISZERO PUSH2 0xA7C JUMPI DUP2 MLOAD DUP8 MSTORE SWAP6 DUP3 ADD SWAP6 SWAP1 DUP3 ADD SWAP1 PUSH1 0x1 ADD PUSH2 0xA60 JUMP JUMPDEST POP SWAP5 SWAP6 SWAP5 POP POP POP POP POP JUMP JUMPDEST PUSH0 DUP2 MLOAD DUP1 DUP5 MSTORE PUSH0 JUMPDEST DUP2 DUP2 LT ISZERO PUSH2 0xAAB JUMPI PUSH1 0x20 DUP2 DUP6 ADD DUP2 ADD MLOAD DUP7 DUP4 ADD DUP3 ADD MSTORE ADD PUSH2 0xA8F JUMP JUMPDEST POP PUSH0 PUSH1 0x20 DUP3 DUP7 ADD ADD MSTORE PUSH1 0x20 PUSH1 0x1F NOT PUSH1 0x1F DUP4 ADD AND DUP6 ADD ADD SWAP2 POP POP SWAP3 SWAP2 POP POP JUMP JUMPDEST PUSH0 DUP2 MLOAD DUP1 DUP5 MSTORE PUSH1 0x20 DUP1 DUP6 ADD SWAP5 POP DUP1 DUP5 ADD PUSH0 JUMPDEST DUP4 DUP2 LT ISZERO PUSH2 0xA7C JUMPI DUP2 MLOAD PUSH1 0x1 PUSH1 0x1 PUSH1 0xA0 SHL SUB AND DUP8 MSTORE SWAP6 DUP3 ADD SWAP6 SWAP1 DUP3 ADD SWAP1 PUSH1 0x1 ADD PUSH2 0xADC JUMP JUMPDEST PUSH1 0xA0 DUP2 MSTORE PUSH0 PUSH2 0xB13 PUSH1 0xA0 DUP4 ADD DUP9 PUSH2 0xA4E JUMP JUMPDEST DUP3 DUP2 SUB PUSH1 0x20 DUP5 DUP2 ADD SWAP2 SWAP1 SWAP2 MSTORE DUP8 MLOAD DUP1 DUP4 MSTORE DUP9 DUP3 ADD SWAP3 DUP3 ADD SWAP1 PUSH0 JUMPDEST DUP2 DUP2 LT ISZERO PUSH2 0xB4C JUMPI DUP5 MLOAD PUSH1 0xFF AND DUP4 MSTORE SWAP4 DUP4 ADD SWAP4 SWAP2 DUP4 ADD SWAP2 PUSH1 0x1 ADD PUSH2 0xB2D JUMP JUMPDEST POP POP DUP5 DUP2 SUB PUSH1 0x40 DUP7 ADD MSTORE DUP8 MLOAD DUP1 DUP3 MSTORE DUP3 DUP3 ADD SWAP4 POP PUSH1 0x5 DUP2 SWAP1 SHL DUP3 ADD DUP4 ADD DUP4 DUP11 ADD PUSH0 JUMPDEST DUP4 DUP2 LT ISZERO PUSH2 0xB9C JUMPI PUSH1 0x1F NOT DUP6 DUP5 SUB ADD DUP8 MSTORE PUSH2 0xB8A DUP4 DUP4 MLOAD PUSH2 0xA87 JUMP JUMPDEST SWAP7 DUP7 ADD SWAP7 SWAP3 POP SWAP1 DUP6 ADD SWAP1 PUSH1 0x1 ADD PUSH2 0xB6E JUMP JUMPDEST POP POP DUP7 DUP2 SUB PUSH1 0x60 DUP9 ADD MSTORE PUSH2 0xBB0 DUP2 DUP11 PUSH2 0xACA JUMP JUMPDEST SWAP5 POP POP POP POP POP DUP3 DUP2 SUB PUSH1 0x80 DUP5 ADD MSTORE PUSH2 0xBC8 DUP2 DUP6 PUSH2 0xA4E JUMP JUMPDEST SWAP9 SWAP8 POP POP POP POP POP POP POP POP JUMP JUMPDEST PUSH0 PUSH1 0x20 DUP3 DUP5 SUB SLT ISZERO PUSH2 0xBE4 JUMPI PUSH0 DUP1 REVERT JUMPDEST DUP2 CALLDATALOAD PUSH1 0x1 PUSH1 0x1 PUSH1 0xA0 SHL SUB DUP2 AND DUP2 EQ PUSH2 0xBFA JUMPI PUSH0 DUP1 REVERT JUMPDEST SWAP4 SWAP3 POP POP POP JUMP JUMPDEST PUSH1 0x20 DUP2 MSTORE PUSH0 PUSH2 0xBFA PUSH1 0x20 DUP4 ADD DUP5 PUSH2 0xA4E JUMP JUMPDEST PUSH0 DUP1 PUSH0 DUP1 PUSH1 0x60 DUP6 DUP8 SUB SLT ISZERO PUSH2 0xC26 JUMPI PUSH0 DUP1 REVERT JUMPDEST DUP5 CALLDATALOAD SWAP4 POP PUSH1 0x20 DUP6 ADD CALLDATALOAD PUSH1 0xFF DUP2 AND DUP2 EQ PUSH2 0xC3D JUMPI PUSH0 DUP1 REVERT JUMPDEST SWAP3 POP PUSH1 0x40 DUP6 ADD CALLDATALOAD PUSH8 0xFFFFFFFFFFFFFFFF DUP1 DUP3 GT ISZERO PUSH2 0xC59 JUMPI PUSH0 DUP1 REVERT JUMPDEST DUP2 DUP8 ADD SWAP2 POP DUP8 PUSH1 0x1F DUP4 ADD SLT PUSH2 0xC6C JUMPI PUSH0 DUP1 REVERT JUMPDEST DUP2 CALLDATALOAD DUP2 DUP2 GT ISZERO PUSH2 0xC7A JUMPI PUSH0 DUP1 REVERT JUMPDEST DUP9 PUSH1 0x20 DUP3 DUP6 ADD ADD GT ISZERO PUSH2 0xC8B JUMPI PUSH0 DUP1 REVERT JUMPDEST SWAP6 SWAP9 SWAP5 SWAP8 POP POP PUSH1 0x20 ADD SWAP5 POP POP POP JUMP JUMPDEST PUSH0 PUSH1 0x20 DUP3 DUP5 SUB SLT ISZERO PUSH2 0xCAA JUMPI PUSH0 DUP1 REVERT JUMPDEST POP CALLDATALOAD SWAP2 SWAP1 POP JUMP JUMPDEST PUSH1 0xFF DUP2 MLOAD AND DUP3 MSTORE PUSH0 PUSH1 0x20 DUP3 ADD MLOAD PUSH1 0x80 PUSH1 0x20 DUP6 ADD MSTORE PUSH2 0xCD2 PUSH1 0x80 DUP6 ADD DUP3 PUSH2 0xA87 JUMP JUMPDEST PUSH1 0x40 DUP5 DUP2 ADD MLOAD PUSH1 0x1 PUSH1 0x1 PUSH1 0xA0 SHL SUB AND SWAP1 DUP7 ADD MSTORE PUSH1 0x60 SWAP4 DUP5 ADD MLOAD SWAP4 SWAP1 SWAP5 ADD SWAP3 SWAP1 SWAP3 MSTORE POP SWAP1 SWAP2 SWAP1 POP JUMP JUMPDEST PUSH1 0x20 DUP2 MSTORE PUSH0 PUSH2 0xBFA PUSH1 0x20 DUP4 ADD DUP5 PUSH2 0xCB1 JUMP JUMPDEST PUSH0 PUSH1 0x20 DUP1 DUP4 ADD DUP2 DUP5 MSTORE DUP1 DUP6 MLOAD DUP1 DUP4 MSTORE PUSH1 0x40 DUP7 ADD SWAP2 POP PUSH1 0x40 DUP2 PUSH1 0x5 SHL DUP8 ADD ADD SWAP3 POP DUP4 DUP8 ADD PUSH0 JUMPDEST DUP3 DUP2 LT ISZERO PUSH2 0xD5F JUMPI PUSH1 0x3F NOT DUP9 DUP7 SUB ADD DUP5 MSTORE PUSH2 0xD4D DUP6 DUP4 MLOAD PUSH2 0xCB1 JUMP JUMPDEST SWAP5 POP SWAP3 DUP6 ADD SWAP3 SWAP1 DUP6 ADD SWAP1 PUSH1 0x1 ADD PUSH2 0xD31 JUMP JUMPDEST POP SWAP3 SWAP8 SWAP7 POP POP POP POP POP POP POP JUMP JUMPDEST PUSH4 0x4E487B71 PUSH1 0xE0 SHL PUSH0 MSTORE PUSH1 0x11 PUSH1 0x4 MSTORE PUSH1 0x24 PUSH0 REVERT JUMPDEST DUP1 DUP3 ADD DUP1 DUP3 GT ISZERO PUSH2 0xD93 JUMPI PUSH2 0xD93 PUSH2 0xD6C JUMP JUMPDEST SWAP3 SWAP2 POP POP JUMP JUMPDEST DUP2 DUP2 SUB DUP2 DUP2 GT ISZERO PUSH2 0xD93 JUMPI PUSH2 0xD93 PUSH2 0xD6C JUMP JUMPDEST PUSH4 0x4E487B71 PUSH1 0xE0 SHL PUSH0 MSTORE PUSH1 0x41 PUSH1 0x4 MSTORE PUSH1 0x24 PUSH0 REVERT JUMPDEST PUSH4 0x4E487B71 PUSH1 0xE0 SHL PUSH0 MSTORE PUSH1 0x32 PUSH1 0x4 MSTORE PUSH1 0x24 PUSH0 REVERT JUMPDEST PUSH1 0x1 DUP2 DUP2 SHR SWAP1 DUP3 AND DUP1 PUSH2 0xDE8 JUMPI PUSH1 0x7F DUP3 AND SWAP2 POP JUMPDEST PUSH1 0x20 DUP3 LT DUP2 SUB PUSH2 0xE06 JUMPI PUSH4 0x4E487B71 PUSH1 0xE0 SHL PUSH0 MSTORE PUSH1 0x22 PUSH1 0x4 MSTORE PUSH1 0x24 PUSH0 REVERT JUMPDEST POP SWAP2 SWAP1 POP JUMP JUMPDEST PUSH0 PUSH1 0x1 DUP3 ADD PUSH2 0xE1D JUMPI PUSH2 0xE1D PUSH2 0xD6C JUMP JUMPDEST POP PUSH1 0x1 ADD SWAP1 JUMP JUMPDEST PUSH1 0x1F DUP3 GT ISZERO PUSH2 0xE6D JUMPI PUSH0 DUP2 DUP2 MSTORE PUSH1 0x20 DUP2 KECCAK256 PUSH1 0x1F DUP6 ADD PUSH1 0x5 SHR DUP2 ADD PUSH1 0x20 DUP7 LT ISZERO PUSH2 0xE4A JUMPI POP DUP1 JUMPDEST PUSH1 0x1F DUP6 ADD PUSH1 0x5 SHR DUP3 ADD SWAP2 POP JUMPDEST DUP2 DUP2 LT ISZERO PUSH2 0xE69 JUMPI DUP3 DUP2 SSTORE PUSH1 0x1 ADD PUSH2 0xE56 JUMP JUMPDEST POP POP POP JUMPDEST POP POP POP JUMP JUMPDEST DUP2 MLOAD PUSH8 0xFFFFFFFFFFFFFFFF DUP2 GT ISZERO PUSH2 0xE8C JUMPI PUSH2 0xE8C PUSH2 0xDAC JUMP JUMPDEST PUSH2 0xEA0 DUP2 PUSH2 0xE9A DUP5 SLOAD PUSH2 0xDD4 JUMP JUMPDEST DUP5 PUSH2 0xE24 JUMP JUMPDEST PUSH1 0x20 DUP1 PUSH1 0x1F DUP4 GT PUSH1 0x1 DUP2 EQ PUSH2 0xED3 JUMPI PUSH0 DUP5 ISZERO PUSH2 0xEBC JUMPI POP DUP6 DUP4 ADD MLOAD JUMPDEST PUSH0 NOT PUSH1 0x3 DUP7 SWAP1 SHL SHR NOT AND PUSH1 0x1 DUP6 SWAP1 SHL OR DUP6 SSTORE PUSH2 0xE69 JUMP JUMPDEST PUSH0 DUP6 DUP2 MSTORE PUSH1 0x20 DUP2 KECCAK256 PUSH1 0x1F NOT DUP7 AND SWAP2 JUMPDEST DUP3 DUP2 LT ISZERO PUSH2 0xF01 JUMPI DUP9 DUP7 ADD MLOAD DUP3 SSTORE SWAP5 DUP5 ADD SWAP5 PUSH1 0x1 SWAP1 SWAP2 ADD SWAP1 DUP5 ADD PUSH2 0xEE2 JUMP JUMPDEST POP DUP6 DUP3 LT ISZERO PUSH2 0xF1E JUMPI DUP8 DUP6 ADD MLOAD PUSH0 NOT PUSH1 0x3 DUP9 SWAP1 SHL PUSH1 0xF8 AND SHR NOT AND DUP2 SSTORE JUMPDEST POP POP POP POP POP PUSH1 0x1 SWAP1 DUP2 SHL ADD SWAP1 SSTORE POP JUMP JUMPDEST PUSH1 0xFF DUP6 AND DUP2 MSTORE PUSH1 0x60 PUSH1 0x20 DUP3 ADD MSTORE DUP3 PUSH1 0x60 DUP3 ADD MSTORE DUP3 DUP5 PUSH1 0x80 DUP4 ADD CALLDATACOPY PUSH0 PUSH1 0x80 DUP5 DUP4 ADD ADD MSTORE PUSH0 PUSH1 0x80 PUSH1 0x1F NOT PUSH1 0x1F DUP7 ADD AND DUP4 ADD ADD SWAP1 POP DUP3 PUSH1 0x40 DUP4 ADD MSTORE SWAP6 SWAP5 POP POP POP POP POP JUMP INVALID LOG2 PUSH5 0x6970667358 0x22 SLT KECCAK256 0xB8 DUP13 0xD9 PUSH1 0xB8 0xC8 0xAD SWAP11 0xB3 0x4D NOT 0xEB 0x5C REVERT 0xA7 LOG2 REVERT 0xF6 0xE7 0xFC DUP3 0xF 0xD6 GAS GASPRICE PUSH14 0x844855F842A564736F6C63430008 EQ STOP CALLER "},"methodIdentifiers":{"getAllAudits(uint256,uint256)":"0c275a1b","getAuditorHistory(address)":"828f9fe7","getContractAudits(bytes32)":"c7b962ca","getLatestAudit(bytes32)":"be017856","getTotalContracts()":"534860cc","registerAudit(bytes32,uint8,string)":"bd2ee05b"}}}}}